{
  "_format": "hh-sol-artifact-1",
  "contractName": "RainInsurance",
  "sourceName": "contracts/RainInsurance.sol",
  "abi": [
    {
      "inputs": [
        {
          "internalType": "address",
          "name": "token",
          "type": "address"
        }
      ],
      "stateMutability": "nonpayable",
      "type": "constructor"
    },
    {
      "anonymous": false,
      "inputs": [
        {
          "indexed": false,
          "internalType": "uint256",
          "name": "policyId",
          "type": "uint256"
        },
        {
          "indexed": false,
          "internalType": "address",
          "name": "policyHolder",
          "type": "address"
        },
        {
          "indexed": false,
          "internalType": "uint256",
          "name": "insuredAmount",
          "type": "uint256"
        }
      ],
      "name": "ClaimCreated",
      "type": "event"
    },
    {
      "anonymous": false,
      "inputs": [
        {
          "indexed": true,
          "internalType": "uint256",
          "name": "policyId",
          "type": "uint256"
        },
        {
          "indexed": true,
          "internalType": "address",
          "name": "policyHolder",
          "type": "address"
        },
        {
          "indexed": false,
          "internalType": "uint256",
          "name": "insuredAmount",
          "type": "uint256"
        },
        {
          "indexed": false,
          "internalType": "string",
          "name": "reason",
          "type": "string"
        }
      ],
      "name": "ClaimProcessed",
      "type": "event"
    },
    {
      "anonymous": false,
      "inputs": [
        {
          "indexed": false,
          "internalType": "uint256",
          "name": "policyId",
          "type": "uint256"
        },
        {
          "indexed": false,
          "internalType": "address",
          "name": "policyHolder",
          "type": "address"
        },
        {
          "indexed": false,
          "internalType": "uint256",
          "name": "premiumAmount",
          "type": "uint256"
        },
        {
          "indexed": false,
          "internalType": "uint256",
          "name": "insuredAmount",
          "type": "uint256"
        }
      ],
      "name": "PolicyCreated",
      "type": "event"
    },
    {
      "inputs": [
        {
          "internalType": "address",
          "name": "",
          "type": "address"
        },
        {
          "internalType": "uint256",
          "name": "",
          "type": "uint256"
        }
      ],
      "name": "addressPolicies",
      "outputs": [
        {
          "internalType": "uint256",
          "name": "startDate",
          "type": "uint256"
        },
        {
          "internalType": "uint256",
          "name": "endDate",
          "type": "uint256"
        },
        {
          "internalType": "string",
          "name": "lat",
          "type": "string"
        },
        {
          "internalType": "string",
          "name": "long",
          "type": "string"
        },
        {
          "internalType": "uint256",
          "name": "precipitation",
          "type": "uint256"
        },
        {
          "internalType": "uint256",
          "name": "insuredAmount",
          "type": "uint256"
        },
        {
          "internalType": "uint256",
          "name": "premiumAmount",
          "type": "uint256"
        },
        {
          "internalType": "uint256",
          "name": "policyId",
          "type": "uint256"
        }
      ],
      "stateMutability": "view",
      "type": "function"
    },
    {
      "inputs": [
        {
          "internalType": "address",
          "name": "",
          "type": "address"
        }
      ],
      "name": "addressPoliciesCount",
      "outputs": [
        {
          "internalType": "uint256",
          "name": "",
          "type": "uint256"
        }
      ],
      "stateMutability": "view",
      "type": "function"
    },
    {
      "inputs": [
        {
          "components": [
            {
              "internalType": "uint256",
              "name": "startDate",
              "type": "uint256"
            },
            {
              "internalType": "uint256",
              "name": "endDate",
              "type": "uint256"
            },
            {
              "internalType": "string",
              "name": "lat",
              "type": "string"
            },
            {
              "internalType": "string",
              "name": "long",
              "type": "string"
            },
            {
              "internalType": "uint256",
              "name": "precipitation",
              "type": "uint256"
            },
            {
              "internalType": "uint256",
              "name": "insuredAmount",
              "type": "uint256"
            },
            {
              "internalType": "uint256",
              "name": "premiumAmount",
              "type": "uint256"
            },
            {
              "internalType": "uint256",
              "name": "policyId",
              "type": "uint256"
            }
          ],
          "internalType": "struct RainInsurance.Policy",
          "name": "policy",
          "type": "tuple"
        }
      ],
      "name": "applyForPolicy",
      "outputs": [],
      "stateMutability": "payable",
      "type": "function"
    },
    {
      "inputs": [
        {
          "internalType": "uint256",
          "name": "policyId",
          "type": "uint256"
        }
      ],
      "name": "aproveClaim",
      "outputs": [],
      "stateMutability": "nonpayable",
      "type": "function"
    },
    {
      "inputs": [
        {
          "internalType": "address",
          "name": "",
          "type": "address"
        }
      ],
      "name": "claims",
      "outputs": [
        {
          "internalType": "uint256",
          "name": "",
          "type": "uint256"
        }
      ],
      "stateMutability": "view",
      "type": "function"
    },
    {
      "inputs": [
        {
          "internalType": "uint256",
          "name": "policyId",
          "type": "uint256"
        }
      ],
      "name": "fireClaim",
      "outputs": [],
      "stateMutability": "nonpayable",
      "type": "function"
    },
    {
      "inputs": [
        {
          "internalType": "address",
          "name": "user",
          "type": "address"
        }
      ],
      "name": "getAllPolicies",
      "outputs": [
        {
          "components": [
            {
              "internalType": "uint256",
              "name": "startDate",
              "type": "uint256"
            },
            {
              "internalType": "uint256",
              "name": "endDate",
              "type": "uint256"
            },
            {
              "internalType": "string",
              "name": "lat",
              "type": "string"
            },
            {
              "internalType": "string",
              "name": "long",
              "type": "string"
            },
            {
              "internalType": "uint256",
              "name": "precipitation",
              "type": "uint256"
            },
            {
              "internalType": "uint256",
              "name": "insuredAmount",
              "type": "uint256"
            },
            {
              "internalType": "uint256",
              "name": "premiumAmount",
              "type": "uint256"
            },
            {
              "internalType": "uint256",
              "name": "policyId",
              "type": "uint256"
            }
          ],
          "internalType": "struct RainInsurance.Policy[]",
          "name": "ret",
          "type": "tuple[]"
        }
      ],
      "stateMutability": "view",
      "type": "function"
    },
    {
      "inputs": [
        {
          "internalType": "address",
          "name": "user",
          "type": "address"
        }
      ],
      "name": "getAllPolicyIds",
      "outputs": [
        {
          "internalType": "uint256[]",
          "name": "ret",
          "type": "uint256[]"
        }
      ],
      "stateMutability": "view",
      "type": "function"
    },
    {
      "inputs": [
        {
          "internalType": "address",
          "name": "policyHolder",
          "type": "address"
        }
      ],
      "name": "getClaim",
      "outputs": [
        {
          "internalType": "uint256",
          "name": "",
          "type": "uint256"
        }
      ],
      "stateMutability": "view",
      "type": "function"
    },
    {
      "inputs": [
        {
          "internalType": "uint256",
          "name": "policyId",
          "type": "uint256"
        }
      ],
      "name": "getPolicy",
      "outputs": [
        {
          "components": [
            {
              "internalType": "uint256",
              "name": "startDate",
              "type": "uint256"
            },
            {
              "internalType": "uint256",
              "name": "endDate",
              "type": "uint256"
            },
            {
              "internalType": "string",
              "name": "lat",
              "type": "string"
            },
            {
              "internalType": "string",
              "name": "long",
              "type": "string"
            },
            {
              "internalType": "uint256",
              "name": "precipitation",
              "type": "uint256"
            },
            {
              "internalType": "uint256",
              "name": "insuredAmount",
              "type": "uint256"
            },
            {
              "internalType": "uint256",
              "name": "premiumAmount",
              "type": "uint256"
            },
            {
              "internalType": "uint256",
              "name": "policyId",
              "type": "uint256"
            }
          ],
          "internalType": "struct RainInsurance.Policy",
          "name": "",
          "type": "tuple"
        }
      ],
      "stateMutability": "view",
      "type": "function"
    },
    {
      "inputs": [],
      "name": "getRiskPoolBalance",
      "outputs": [
        {
          "internalType": "uint256",
          "name": "",
          "type": "uint256"
        }
      ],
      "stateMutability": "view",
      "type": "function"
    },
    {
      "inputs": [
        {
          "internalType": "uint256",
          "name": "",
          "type": "uint256"
        }
      ],
      "name": "policies",
      "outputs": [
        {
          "internalType": "uint256",
          "name": "startDate",
          "type": "uint256"
        },
        {
          "internalType": "uint256",
          "name": "endDate",
          "type": "uint256"
        },
        {
          "internalType": "string",
          "name": "lat",
          "type": "string"
        },
        {
          "internalType": "string",
          "name": "long",
          "type": "string"
        },
        {
          "internalType": "uint256",
          "name": "precipitation",
          "type": "uint256"
        },
        {
          "internalType": "uint256",
          "name": "insuredAmount",
          "type": "uint256"
        },
        {
          "internalType": "uint256",
          "name": "premiumAmount",
          "type": "uint256"
        },
        {
          "internalType": "uint256",
          "name": "policyId",
          "type": "uint256"
        }
      ],
      "stateMutability": "view",
      "type": "function"
    },
    {
      "inputs": [
        {
          "internalType": "uint256",
          "name": "",
          "type": "uint256"
        }
      ],
      "name": "policyHolders",
      "outputs": [
        {
          "internalType": "address",
          "name": "",
          "type": "address"
        }
      ],
      "stateMutability": "view",
      "type": "function"
    },
    {
      "inputs": [],
      "name": "usdcToken",
      "outputs": [
        {
          "internalType": "contract IERC20",
          "name": "",
          "type": "address"
        }
      ],
      "stateMutability": "view",
      "type": "function"
    }
  ],
  "bytecode": "0x608060405234801561001057600080fd5b50604051611ba5380380611ba583398101604081905261002f9161005d565b600080546001600160a01b039092166001600160a01b0319928316179055600780549091163317905561008d565b60006020828403121561006f57600080fd5b81516001600160a01b038116811461008657600080fd5b9392505050565b611b098061009c6000396000f3fe6080604052600436106100dd5760003560e01c8063a83df2881161007f578063c6788bdd11610059578063c6788bdd146102b6578063d3e89483146102e3578063d8b0915d14610303578063e338415c1461032357600080fd5b8063a83df2881461021f578063be62dcf114610253578063c2f387a41461028957600080fd5b80634892cdab116100bb5780634892cdab146101795780634cd3723a1461019b5780636cb4f3c4146101df578063752ec8981461020c57600080fd5b806311eac855146100e25780632b07fce31461011f5780632d9a147c1461014c575b600080fd5b3480156100ee57600080fd5b50600054610102906001600160a01b031681565b6040516001600160a01b0390911681526020015b60405180910390f35b34801561012b57600080fd5b5061013f61013a3660046113dc565b610338565b60405161011691906114b4565b34801561015857600080fd5b5061016c6101673660046114ea565b6104c6565b6040516101169190611505565b34801561018557600080fd5b506101996101943660046113dc565b6105e8565b005b3480156101a757600080fd5b506101d16101b63660046114ea565b6001600160a01b031660009081526006602052604090205490565b604051908152602001610116565b3480156101eb57600080fd5b506101d16101fa3660046114ea565b60056020526000908152604090205481565b61019961021a366004611616565b6106cb565b34801561022b57600080fd5b5061023f61023a3660046116e7565b610a3a565b604051610116989796959493929190611711565b34801561025f57600080fd5b5061010261026e3660046113dc565b6002602052600090815260409020546001600160a01b031681565b34801561029557600080fd5b506102a96102a43660046114ea565b610baf565b604051610116919061176d565b3480156102c257600080fd5b506101d16102d13660046114ea565b60066020526000908152604090205481565b3480156102ef57600080fd5b5061023f6102fe3660046113dc565b610e41565b34801561030f57600080fd5b5061019961031e3660046113dc565b610e69565b34801561032f57600080fd5b506101d161125a565b6103406112cc565b60036000838152602001908152602001600020604051806101000160405290816000820154815260200160018201548152602001600282018054610383906117cf565b80601f01602080910402602001604051908101604052809291908181526020018280546103af906117cf565b80156103fc5780601f106103d1576101008083540402835291602001916103fc565b820191906000526020600020905b8154815290600101906020018083116103df57829003601f168201915b50505050508152602001600382018054610415906117cf565b80601f0160208091040260200160405190810160405280929190818152602001828054610441906117cf565b801561048e5780601f106104635761010080835404028352916020019161048e565b820191906000526020600020905b81548152906001019060200180831161047157829003601f168201915b505050505081526020016004820154815260200160058201548152602001600682015481526020016007820154815250509050919050565b6001600160a01b0381166000908152600560205260409020546060908067ffffffffffffffff8111156104fb576104fb611549565b604051908082528060200260200182016040528015610524578160200160208202803683370190505b50915060005b818110156105e1576001600160a01b038416600090815260046020526040812080548390811061055c5761055c611809565b90600052602060002090600802016007015411156105cf576001600160a01b038416600090815260046020526040902080548290811061059e5761059e611809565b9060005260206000209060080201600701548382815181106105c2576105c2611809565b6020026020010181815250505b806105d981611835565b91505061052a565b5050919050565b6000818152600360205260409020600501546106405760405162461bcd60e51b81526020600482015260126024820152714d7573742068617665206120706f6c69637960701b60448201526064015b60405180910390fd5b6000818152600360209081526040808320600501543384526006909252822080549192909161067090849061184e565b909155505060008181526003602090815260409182902060050154825184815233928101929092528183015290517f7c61b972a4b7793ab7c7a85d214e2769579c27752c5da069b2817e21a0efe80b9181900360600190a150565b60008160c001511161072d5760405162461bcd60e51b815260206004820152602560248201527f5072656d69756d20616d6f756e74206d75737420626520677265617465722074604482015264068616e20360dc1b6064820152608401610637565b60008160a001511161078f5760405162461bcd60e51b815260206004820152602560248201527f496e737572656420616d6f756e74206d75737420626520677265617465722074604482015264068616e20360dc1b6064820152608401610637565b6000805460c08301516040516323b872dd60e01b815233600482015230602482015260448101919091526001600160a01b03909116906323b872dd906064016020604051808303816000875af11580156107ed573d6000803e3d6000fd5b505050506040513d601f19601f820116820180604052508101906108119190611867565b9050806108605760405162461bcd60e51b815260206004820152601960248201527f5072656d69756d20636f6c6c656374696f6e206661696c6564000000000000006044820152606401610637565b6001806000828254610872919061184e565b909155505060018054600090815260026020818152604080842080546001600160a01b03191633179055845484526003825292839020865181559086015193810193909355908401518492918201906108cb90826118d8565b50606082015160038201906108e090826118d8565b50608082015160048083019190915560a0830151600583015560c0830151600683015560e090920151600791820155600180546000818152600360208181526040808420968701949094553383529586529181209185528154808401835591815293909320825460089094020192835581810154908301559060028082019061096b90840182611998565b5060038181019061097e90840182611998565b50600482015481600401556005820154816005015560068201548160060155600782015481600701555050600160056000336001600160a01b03166001600160a01b0316815260200190815260200160002060008282546109df919061184e565b909155505060015460c083015160a08401516040805193845233602085015283019190915260608201527ff407f724dd5d2b7754fcbc405960f07c8da0a85e7f71948913fb2997e77bfc869060800160405180910390a15050565b60046020528160005260406000208181548110610a5657600080fd5b906000526020600020906008020160009150915050806000015490806001015490806002018054610a86906117cf565b80601f0160208091040260200160405190810160405280929190818152602001828054610ab2906117cf565b8015610aff5780601f10610ad457610100808354040283529160200191610aff565b820191906000526020600020905b815481529060010190602001808311610ae257829003601f168201915b505050505090806003018054610b14906117cf565b80601f0160208091040260200160405190810160405280929190818152602001828054610b40906117cf565b8015610b8d5780601f10610b6257610100808354040283529160200191610b8d565b820191906000526020600020905b815481529060010190602001808311610b7057829003601f168201915b5050505050908060040154908060050154908060060154908060070154905088565b6001600160a01b0381166000908152600560205260409020546060908067ffffffffffffffff811115610be457610be4611549565b604051908082528060200260200182016040528015610c1d57816020015b610c0a6112cc565b815260200190600190039081610c025790505b50915060005b818110156105e1576001600160a01b0384166000908152600460205260408120805483908110610c5557610c55611809565b9060005260206000209060080201600701541115610e2f576001600160a01b0384166000908152600460205260409020805482908110610c9757610c97611809565b9060005260206000209060080201604051806101000160405290816000820154815260200160018201548152602001600282018054610cd5906117cf565b80601f0160208091040260200160405190810160405280929190818152602001828054610d01906117cf565b8015610d4e5780601f10610d2357610100808354040283529160200191610d4e565b820191906000526020600020905b815481529060010190602001808311610d3157829003601f168201915b50505050508152602001600382018054610d67906117cf565b80601f0160208091040260200160405190810160405280929190818152602001828054610d93906117cf565b8015610de05780601f10610db557610100808354040283529160200191610de0565b820191906000526020600020905b815481529060010190602001808311610dc357829003601f168201915b50505050508152602001600482015481526020016005820154815260200160068201548152602001600782015481525050838281518110610e2357610e23611809565b60200260200101819052505b80610e3981611835565b915050610c23565b60036020526000908152604090208054600182015460028301805492939192610a86906117cf565b6000818152600260205260409020546007546001600160a01b0391821691163314610f795760006040518060400160405280601c81526020017f4f6e6c79206f776e65722063616e206170726f766520636c61696d73000000008152509050816001600160a01b0316837f9b463eb954c3711111fffe9293e9b595f0f76c81255f723861cfe950e854a4df60066000866001600160a01b03166001600160a01b031681526020019081526020016000205484604051610f29929190611a73565b60405180910390a360405162461bcd60e51b815260206004820152601c60248201527f4f6e6c79206f776e65722063616e206170726f766520636c61696d73000000006044820152606401610637565b6001600160a01b03811660009081526006602052604081205490036110555760006040518060400160405280601f81526020017f506f6c69637920686f6c646572206d7573742068617665206120636c61696d008152509050816001600160a01b0316837f9b463eb954c3711111fffe9293e9b595f0f76c81255f723861cfe950e854a4df60066000866001600160a01b03166001600160a01b031681526020019081526020016000205484604051611033929190611a73565b60405180910390a38060405162461bcd60e51b81526004016106379190611a94565b600080546001600160a01b038381168084526006602052604080852054905163a9059cbb60e01b81526004810192909252602482015291169063a9059cbb906044016020604051808303816000875af11580156110b6573d6000803e3d6000fd5b505050506040513d601f19601f820116820180604052508101906110da9190611867565b9050806111205760405162461bcd60e51b815260206004820152601460248201527310db185a5b481c185e5b595b9d0819985a5b195960621b6044820152606401610637565b600083815260036020526040812081815560018101829055906111466002830182611311565b611154600383016000611311565b50600060048281018290556005830182905560068301829055600790920181905584815260026020908152604080832080546001600160a01b03191690553383529290529081206111a49161134e565b3360009081526005602052604081208054600192906111c4908490611aa7565b90915550506001600160a01b0382166000818152600660205260409081902054905185917f9b463eb954c3711111fffe9293e9b595f0f76c81255f723861cfe950e854a4df9161123691815260406020820181905260089082015267185c1c1c9bdd995960c21b606082015260800190565b60405180910390a3506001600160a01b031660009081526006602052604081205550565b600080546040516370a0823160e01b81523060048201526001600160a01b03909116906370a0823190602401602060405180830381865afa1580156112a3573d6000803e3d6000fd5b505050506040513d601f19601f820116820180604052508101906112c79190611aba565b905090565b60405180610100016040528060008152602001600081526020016060815260200160608152602001600081526020016000815260200160008152602001600081525090565b50805461131d906117cf565b6000825580601f1061132d575050565b601f01602090049060005260206000209081019061134b919061136f565b50565b508054600082556008029060005260206000209081019061134b9190611388565b5b808211156113845760008155600101611370565b5090565b80821115611384576000808255600182018190556113a96002830182611311565b6113b7600383016000611311565b5060006004820181905560058201819055600682018190556007820155600801611388565b6000602082840312156113ee57600080fd5b5035919050565b6000815180845260005b8181101561141b576020818501810151868301820152016113ff565b506000602082860101526020601f19601f83011685010191505092915050565b600061010082518452602083015160208501526040830151816040860152611465828601826113f5565b9150506060830151848203606086015261147f82826113f5565b9150506080830151608085015260a083015160a085015260c083015160c085015260e083015160e08501528091505092915050565b6020815260006114c7602083018461143b565b9392505050565b80356001600160a01b03811681146114e557600080fd5b919050565b6000602082840312156114fc57600080fd5b6114c7826114ce565b6020808252825182820181905260009190848201906040850190845b8181101561153d57835183529284019291840191600101611521565b50909695505050505050565b634e487b7160e01b600052604160045260246000fd5b604051610100810167ffffffffffffffff8111828210171561158357611583611549565b60405290565b600082601f83011261159a57600080fd5b813567ffffffffffffffff808211156115b5576115b5611549565b604051601f8301601f19908116603f011681019082821181831017156115dd576115dd611549565b816040528381528660208588010111156115f657600080fd5b836020870160208301376000602085830101528094505050505092915050565b60006020828403121561162857600080fd5b813567ffffffffffffffff8082111561164057600080fd5b90830190610100828603121561165557600080fd5b61165d61155f565b823581526020830135602082015260408301358281111561167d57600080fd5b61168987828601611589565b6040830152506060830135828111156116a157600080fd5b6116ad87828601611589565b6060830152506080830135608082015260a083013560a082015260c083013560c082015260e083013560e082015280935050505092915050565b600080604083850312156116fa57600080fd5b611703836114ce565b946020939093013593505050565b60006101008a83528960208401528060408401526117318184018a6113f5565b9050828103606084015261174581896113f5565b9150508560808301528460a08301528360c08301528260e08301529998505050505050505050565b6000602080830181845280855180835260408601915060408160051b870101925083870160005b828110156117c257603f198886030184526117b085835161143b565b94509285019290850190600101611794565b5092979650505050505050565b600181811c908216806117e357607f821691505b60208210810361180357634e487b7160e01b600052602260045260246000fd5b50919050565b634e487b7160e01b600052603260045260246000fd5b634e487b7160e01b600052601160045260246000fd5b6000600182016118475761184761181f565b5060010190565b808201808211156118615761186161181f565b92915050565b60006020828403121561187957600080fd5b815180151581146114c757600080fd5b601f8211156118d357600081815260208120601f850160051c810160208610156118b05750805b601f850160051c820191505b818110156118cf578281556001016118bc565b5050505b505050565b815167ffffffffffffffff8111156118f2576118f2611549565b6119068161190084546117cf565b84611889565b602080601f83116001811461193b57600084156119235750858301515b600019600386901b1c1916600185901b1785556118cf565b600085815260208120601f198616915b8281101561196a5788860151825594840194600190910190840161194b565b50858210156119885787850151600019600388901b60f8161c191681555b5050505050600190811b01905550565b8181036119a3575050565b6119ad82546117cf565b67ffffffffffffffff8111156119c5576119c5611549565b6119d38161190084546117cf565b6000601f821160018114611a0757600083156119ef5750848201545b600019600385901b1c1916600184901b178455611a6c565b600085815260209020601f19841690600086815260209020845b83811015611a415782860154825560019586019590910190602001611a21565b5085831015611a5f5781850154600019600388901b60f8161c191681555b50505060018360011b0184555b5050505050565b828152604060208201526000611a8c60408301846113f5565b949350505050565b6020815260006114c760208301846113f5565b818103818111156118615761186161181f565b600060208284031215611acc57600080fd5b505191905056fea2646970667358221220e6184ab8eb93ed399731c349f5b3c368d86b07ed5b912e7502612eaaace0b89a64736f6c63430008120033",
  "linkReferences": {},
  "deployedLinkReferences": {}
}